:02000000C12815
:100008007E1480312000911C0A280B2837282100F3
:10001800911020001C1191101B082C001202031CC7
:10002800162817281A28F701F70321281208031D94
:100038001E281F282128F701F70A7703031D252802
:1000480026282B280130F000700892073228770AFA
:10005800031D2F28302832280130920220009A01EF
:100068001C15210091142000111F3B283C28BF2893
:10007800210011132000111321001D0C890C1F39B8
:10008800003A031D482849287C28F8017808F00020
:10009800F101F035F10D9F30700784000130713D9A
:1000A80080388500003FF200013FF300F401F501BC
:1000B800750820004C02031D6B2874084B02031DB1
:1000C8006B2873084A02031D6B2872084902031C37
:1000D8006E286F287028BD280130F0007008F807D6
:1000E8007808803A303E031C7A287B284A28BD28A5
:1000F8001D0C890C1F39033A031D83288428BD2849
:100108007608F000F101F01BF1037908FE3EF200D9
:10011800FF307A3DF3007308803AF4007108803AA2
:100128007402031D992870087202031C9C289D28DC
:10013800A62820008C142100911020001B082C00F8
:100148009200BD287608F000F101F01BF1037A084F
:10015800803AF2007108803A7202031DB5287008CF
:1001680079020318B828B928BD2820008C1021006E
:100178009114210011177E100900C228F901FA0113
:100188002000C901CA01CB01CC017E102000CC2877
:100198002000C0018331C32380318331A7238031FC
:1001A80015302000BB004B30BA00BE30890BDA286E
:1001B800BA0BDA28BB0BDA2800000330200040060F
:1001C800031DE728E8287829003083311823803177
:1001D80020002008C5002108C600C701C80100305A
:1001E800BA000430BB000030BC000030BD00450838
:1001F800BA024608BB3B4708BC3B4808BD3B3D0824
:10020800C8003C08C7003B08C6003A08C5004808B3
:10021800A3004708A2004608A1004508A000003036
:10022800A7000030A6000130A500F430A4008331F7
:100238005323803120002008BA002108BB0022087F
:10024800BC002308BD000A30BD36BC0CBB0CBA0C80
:10025800890B28293D08C4003C08C3003B08C2009C
:100268003A08C1004408AF004308AE004208AD0098
:100278004108AC00F430BA000130BB000030BC00CB
:100288000030BD004108BA024208BB3B4308BC3BF2
:100298004408BD3B3D08A3003C08A2003B08A10060
:1002A8003A08A0000030A7000030A6000330A500DF
:1002B800E830A40083315323803120002308B300A1
:1002C8002208B2002108B1002008B00082313F2284
:1002D800803120002F08CC002E08CB002D08CA0042
:1002E8002C08C900C001E12882319A2280312000FF
:1002F8002B08BF002A08BE003F08A1003E08A00046
:100308000A30A2000030A300833187238031200007
:100318002008BA002108BB000730BB36BA0C890B8D
:1003280091293A08F9003B08FA000130BA003A0866
:10033800C007E128C128F0342534CE342334CE3424
:100348002134EC341F342A341E3482341C34F434FF
:100358001A347E341934203418349E3415347A34DF
:1003680014346634133464341234703411348A34D7
:100378001034B0340F34E4340E3424340E346E3474
:100388000D34C2340C3420340C3486340B34F63437
:100398000A346C340A34EC34093472340934FE34C7
:1003A80008349034083428340834C634073469349F
:1003B800073411340734BE3406346E34063423341B
:1003C8000634DC34053498340534583405341B3489
:1003D8000534E1340434AA3404347634043444341F
:1003E800043415340434E8340334BD340334943409
:1003F80003346D340334483403342534033404346B
:100408000334E4340234C5340234A83402348D345D
:1004180002347234023459340234413402342A34F6
:10042800023414340234FF340134EB340134D83448
:100438000134C6340134B4340134A434013494345E
:1004480001348434013476340134683401345A3444
:1004580001344E34013441340134353401342A3402
:1004680001341F340134153401340B34013402349F
:100478000134F834003400302000B8000030B700F0
:100488000030B6000030B5002F082E042D042C04CF
:1004980003194F2A502A912AB901B90A5E2A013054
:1004A800AC35AD0DAE0DAF0D890B542A0130B4003B
:1004B8003408B907AF1F612A622A532A0130B535BB
:1004C800B60DB70DB80D890B632A2F083302031D2B
:1004D800772A2E083202031D772A2D083102031DC0
:1004E800772A2C083002031C7A2A7B2A842A2C08B3
:1004F800B0022D08B13B2E08B23B2F08B33B351490
:100508000130AF36AE0CAD0CAC0C890B852A01302E
:10051800B902031D902A912A622A3808AF003708C9
:10052800AE003608AD003508AC0008000330833152
:100538001823823120002108AF002008AE000330C4
:10054800890BA42A0000033083311823823120004C
:100558002108B1002008B0000330890BB12A00003F
:10056800033083311823823120002108B30020088A
:10057800B2000330890BBE2A000003302000A0001F
:100588000030A10030082E07AC0031082F3DAD0027
:1005980032082C07A20033082D3DA3008231DB224C
:1005A800823120002108AB002008AA0008002000A2
:1005B800A501A601200821040319E32AE42A132B24
:1005C800A701A70AF02A0130A035A10D890BE82A56
:1005D8000130A4002408A707A11FF32AF42AE72A58
:1005E8000130A535A60D890BF52A21082302031D24
:1005F800FF2A20082202031C022B032B082B2008A9
:10060800A2022108A33B25140130A136A00C890BB6
:10061800092B0130A702031D122B132BF42A2608DD
:10062800A1002508A00008002000A9002908A200B0
:10063800A20DA20D21001D082000220683392206E2
:1006480021009D000D302000A200FB30890B2A2BD1
:10065800A20B2A2B003221009D149D18342B352B18
:10066800312B1B082000A2000630A236890B392B3B
:100678002208A300A40121001C082000A500A6014F
:10068800A535A60DA535A60D23082504A700240821
:100698002604A8002708A0002808A10008000030A8
:1006A8002000AB000030AA000030A9000030A800EC
:1006B800201C5F2B602B682B2408A8072508A93D60
:1006C8002608AA3D2708AB3D0130A435A50DA60D87
:1006D800A70D890B692B0130A336A20CA10CA00C25
:1006E800890B702B2308220421042004031D7D2B71
:1006F8007E2B5C2B2B08A3002A08A2002908A10046
:100708002808A00008002000A401A501201C8D2BAA
:100718008E2B922B2208A4072308A53D0130A23571
:10072800A30D890B932B0130A136A00C890B982BB4
:1007380020082104031DA12BA22B8A2B2508A10028
:100748002408A000080021000C152C0093011312A6
:10075800C83020009B002C00920191018B170B17C9
:10076800210091142000911003309C042C00931751
:1007780021000C112C00131720001C1508007030E4
:100788002100990020008C1021008C1023000C14EB
:100798000C16503021009E00111720001113210063
:0607A8009D101D14080065
:020000040001F9
:04000E00E439FF1DB5
:00000001FF
