:02000000CD2809
:100008007E1480312000911C0A280B2841282100E9
:10001800911020001C1191101B082C001202031CC7
:10002800162817281C28FF30F300FF30F400252875
:100038001208031D2028212825280130F30000304C
:10004800F40073037404031D2A282B283028013078
:10005800F000700892073A28730A031D3728740ABB
:10006800031D372838283A280130920220009A01C7
:100078002100911420001C15CB28111F4428452865
:10008800CB28210011132000111321001D0C890C0D
:100098001F39003A031D512852289428F501F6010A
:1000A8007608803AF00080307002031D5D285030D9
:1000B8007502031C602861286228C9287608850013
:1000C800750884008435850DD53084070030053DDA
:1000D80080388500003FF000013FF10071082000E2
:1000E8003B02031D792870083A02031C7C287D28EE
:1000F80082287608F8007508F700C9280130F50746
:100108000030F63D7608803AF00080307002031D1A
:100118008F2850307502031C922893286228C9281A
:100128001D0C890C1F39033A031D9B289C28C928DC
:100138007808803AF00020003D08803A7002031DDC
:10014800A7283C087702031CAA28AB28B12820005E
:100158008C141C112C009201C92820003C08F63E82
:10016800F000FF303D3DF1007108803AF200780858
:10017800803A7202031DC22877087002031CC52842
:10018800C628C92820008C101C15210011177E10C4
:100198000900CE28F501F601F701F8017E102000CC
:1001A8007529F0342534CE342334CE342134EC345C
:1001B8001F342A341E3482341C34F4341A347E3406
:1001C8001934203418349E3415347A34143466348F
:1001D800133464341234703411348A341034B03423
:1001E8000F34E4340E3424340E346E340D34C234F7
:1001F8000C3420340C3486340B34F6340A346C3422
:100208000A34EC34093472340934FE340834903436
:10021800083428340834C6340734693407341134B0
:100228000734BE3406346E34063423340634DC34E2
:10023800053498340534583405341B340534E13416
:100248000434AA340434763404344434043415347D
:100258000434E8340334BD340334943403346D3443
:100268000334483403342534033404340334E43485
:100278000234C5340234A83402348D340234723462
:10028800023459340234413402342A3402341434E6
:100298000234FF340134EB340134D8340134C63429
:1002A8000134B4340134A434013494340134843432
:1002B800013476340134683401345A3401344E340C
:1002C800013441340134353401342A3401341F34C3
:1002D8000134153401340B34013402340134F83458
:1002E80000348331092381318231ED2281312100AB
:1002F8009C019B010030823192228131200021082B
:10030800C1002008C0000030B4000430B500400827
:100318003402C0004108353BC1004108A100400833
:10032800A000F430A2000130A3008231CD22813137
:1003380020002008B4002108B5000A30B536B40CF6
:10034800890BA2293408C2003508C300C401C501BD
:100358004508A9004408A8004308A7004208A600C9
:10036800E830A2000330A300F430B4000130B50037
:1003780042083402A0004308353BA1008231CD2257
:10038800813120002008B6002108B700B801B90162
:100398003908AD003808AC003708AB003608AA00A9
:1003A8008131FA21813120002708BB002608BA00D4
:1003B80021009C019B01033082319222813120006F
:1003C8002108BF002008BE000C30A0000030A100AA
:1003D8003F08A3003E08A200823155228131200047
:1003E8002108BD002008BC007B29CD280030200052
:1003F800B2000030B1000030B0000030AF00290872
:1004080028042704260403190A2A0B2A4C2AB301B4
:10041800B30A192A0130A635A70DA80DA90D890B15
:100428000F2A0130AE002E08B307A91F1C2A1D2A67
:100438000E2A0130AF35B00DB10DB20D890B1E2A51
:1004480029082D02031D322A28082C02031D322AEE
:1004580027082B02031D322A26082A02031C352AE4
:10046800362A3F2A2608AA022708AB3B2808AC3BB5
:100478002908AD3B2F140130A936A80CA70CA60CEF
:10048800890B402A0130B302031D4B2A4C2A1D2A2E
:100498003208A9003108A8003008A7002F08A600D4
:1004A80008002000A601A7012008210403195D2ADD
:1004B8005E2A8D2AA501A50A6A2A0130A035A10D58
:1004C800890B622A0130A4002408A507A11F6D2A00
:1004D8006E2A612A0130A635A70D890B6F2A2108DB
:1004E8002302031D792A20082202031C7C2A7D2A64
:1004F800822A2008A2022108A33B26140130A13633
:10050800A00C890B832A0130A502031D8C2A8D2A91
:100518006E2A2708A1002608A00008002000A900CC
:100528002908A200A20DA20D21001D082000220604
:100538008339220621009D000D302000A200FB30E7
:10054800890BA42AA20BA42A003221009D149D180D
:10055800AE2AAF2AAB2A1B082000A2000630A2361A
:10056800890BB32A2208A300A40121001C0820003B
:10057800A500A601A535A60DA535A60D23082504B9
:10058800A70024082604A8002708A0002808A1001E
:1005980008002000A401A501201CD32AD42AD82AA7
:1005A8002208A4072308A53D0130A235A30D890B15
:1005B800D92A0130A136A00C890BDE2A2008210493
:1005C800031DE72AE82AD02A2508A1002408A0004C
:1005D800080021000C152C009301131296302000FE
:1005E8009B002C00920191018B170B17210091148D
:1005F8002000911003309C042C00931721000C114B
:100608002C00131720001C150800703021009900D9
:1006180020008C1021008C1023000C140C16503074
:1006280021009E0011172000111321009D101D1498
:020638000800B8
:020000040001F9
:04000E00E439FF1DB5
:00000001FF
