:02000000D828FE
:100008007E1480312000911C0A280B2840282100EA
:10001800911020001C1191101B082C001202031CC7
:10002800162817281C28FF30FA00FF30FB00252867
:100038001208031D2028212825280130FA00003045
:10004800FB007A037B04031D2A282B283028013063
:10005800F600760892073A287A0A031D37287B0AA1
:10006800031D372838283A280130920220009A01C7
:100078002100911420001C15111F43284428D6285C
:10008800210011132000111321001D0C890C1F39A8
:10009800003A031D502851289D28F001F1017108EC
:1000A800803AF60080307602031D5C2850307002DA
:1000B800031C5F2860286128D4287108850070080F
:1000C80084008435850DCF3084070130053D8038A4
:1000D8008500003FF600013FF700F801F9017908B3
:1000E80020004302031D822878084202031D82284B
:1000F80077084102031D822876084002031C8528E0
:1001080086288B287108F3007008F200D428013083
:10011800F0070030F13D7108803AF6008030760231
:10012800031D982850307002031C9B289C286128C6
:10013800D4281D0C890C1F39033A031DA428A528AF
:10014800D4287408FE3EF600FF30753DF7007708A6
:10015800803AF8007308803A7802031DB5287208BF
:100168007602031CB828B928C22820008C14210064
:10017800911020001B082C009200D4287508803AA2
:10018800F6007308803A7602031DCC2872087402C0
:100198000318CF28D028D42820008C1021009114CF
:1001A800210011177E100900D928F001F101F20190
:1001B800F301F401F50140308400003085000E3071
:1001C8008331F72380317E102000EA282000BE0109
:1001D800BF018331E32380318331C7238031153058
:1001E8002000BB004B30BA00BE30890BF928BA0B8F
:1001F800F928BB0BF9280000033020003E063F0415
:10020800031D07290829B12900308231CA2280310B
:1002180020002008C4002108C500C601C70100301D
:10022800BA000430BB000030BC000030BD004408F8
:10023800BA024508BB3B4608BC3B4708BD3B3D08E6
:10024800C7003C08C6003B08C5003A08C400470878
:10025800A3004608A2004508A1004408A0000030F9
:10026800A7000030A6000130A500F430A4008331B7
:100278009323803120002008BA002108BB002208FF
:10028800BC002308BD000A30BD36BC0CBB0CBA0C40
:10029800890B48293D08CD003C08CC003B08CB0021
:1002A8003A08CA004D08AF004C08AE004B08AD0034
:1002B8004A08AC00F430BA000130BB000030BC0082
:1002C8000030BD004A08BA024B08BB3B4C08BC3B97
:1002D8004D08BD3B3D08A3003C08A2003B08A10017
:1002E8003A08A0000030A7000030A6000330A5009F
:1002F800E830A40083319323803120002308B30021
:100308002208B2002108B1002008B00082316F2213
:10031800803120002F08C3002E08C2002D08C1001C
:100328002C08C00083311123803120002D08C9001A
:100338002C08C8000C30A0000030A1004908A30018
:100348004808A20083315623803120002108F50097
:100358002008F400BE01BF01002983311123803138
:1003680020002D08C9002C08C8000C30A00000305F
:10037800A1004908A3004808A20083315623803110
:1003880020002108F5002008F4000130BE070030E5
:10039800BF3D0029D828F0342534CE342334CE3458
:1003A8002134EC341F342A341E3482341C34F4349F
:1003B8001A347E341934203418349E3415347A347F
:1003C80014346634133464341234703411348A3477
:1003D8001034B0340F34E4340E3424340E346E3414
:1003E8000D34C2340C3420340C3486340B34F634D7
:1003F8000A346C340A34EC34093472340934FE3467
:1004080008349034083428340834C634073469343E
:10041800073411340734BE3406346E3406342334BA
:100428000634DC34053498340534583405341B3428
:100438000534E1340434AA340434763404344434BE
:10044800043415340434E8340334BD3403349434A8
:1004580003346D340334483403342534033404340A
:100468000334E4340234C5340234A83402348D34FD
:1004780002347234023459340234413402342A3496
:10048800023414340234FF340134EB340134D834E8
:100498000134C6340134B4340134A43401349434FE
:1004A80001348434013476340134683401345A34E4
:1004B80001344E34013441340134353401342A34A2
:1004C80001341F340134153401340B34013402343F
:1004D8000134F834003400302000B8000030B70090
:1004E8000030B6000030B5002F082E042D042C046F
:1004F80003197F2A802AC12AB901B90A8E2A013034
:10050800AC35AD0DAE0DAF0D890B842A0130B400AA
:100518003408B907AF1F912A922A832A0130B535CA
:10052800B60DB70DB80D890B932A2F083302031D9A
:10053800A72A2E083202031DA72A2D083102031DFF
:10054800A72A2C083002031CAA2AAB2AB42A2C0892
:10055800B0022D08B13B2E08B23B2F08B33B35142F
:100568000130AF36AE0CAD0CAC0C890BB52A01309E
:10057800B902031DC02AC12A922A3808AF003708D9
:10058800AE003608AD003508AC0008002000A90010
:1005980021009C019B0120002908A200A20DA20DA8
:1005A80021001D08200022068339220621009D0013
:1005B8000D302000A200FB30890BE02AA20BE02AB4
:1005C800003221009D149D18EA2AEB2AE72A1C080C
:1005D8002000A200A3012208AA002308AB002100E2
:1005E8001B082000A2000630A236890BF82A220830
:1005F800A300A4012B08A6002A08A500A535A60D6E
:10060800A535A60D23082504A70024082604A8005C
:100618002708A0002808A100080003308231CA2258
:10062800833120002108B1002008B0000330890B75
:100638001B2B000003308231CA228331200021089D
:10064800B3002008B2000330890B282B00000330C8
:100658008231CA22833120002108B5002008B40065
:100668000330890B352B000003302000A000003038
:10067800A10032083007AE003308313DAF0034081E
:100688002E07A20035082F3DA3008331562383315E
:1006980020002108B7002008B6003708AD0036084A
:1006A800AC0008002000A601A701200821040319B6
:1006B8005E2B5F2B8E2BA501A50A6B2B0130A03575
:1006C800A10D890B632B0130A4002408A507A11FE5
:1006D8006E2B6F2B622B0130A635A70D890B702B63
:1006E80021082302031D7A2B20082202031C7D2BDC
:1006F8007E2B832B2008A2022108A33B261401305D
:10070800A136A00C890B842B0130A502031D8D2B6B
:100718008E2B6F2B2708A1002608A00008000030A8
:100728002000AB000030AA000030A9000030A8006B
:10073800201C9F2BA02BA82B2408A8072508A93D1F
:100748002608AA3D2708AB3D0130A435A50DA60D06
:10075800A70D890BA92B0130A336A20CA10CA00C64
:10076800890BB02B2308220421042004031DBD2B70
:10077800BE2B9C2B2B08A3002A08A2002908A10045
:100788002808A000080021000C152C009301131262
:10079800C83020009B002C00920191018B170B1789
:1007A800210091142000911003309C042C00931711
:1007B80021000C112C00131720001C1508007030A4
:1007C8002100990020008C1021008C1023000C14AB
:1007D8000C16503021009E00111720001113210023
:1007E8009D101D140800640080010131890BF82B4D
:0207F8000034CB
:020000040001F9
:04000E00E439FF1DB5
:00000001FF
