:02000000D828FE
:100008007E1480312000911C0A280B283F282100EB
:10001800911020001C1191101B082C001202031CC7
:10002800162817281C28FF30FA00FF30FB00252867
:100038001208031D2028212825280130FA00003045
:10004800FB007A037B04031D2A282B283028013063
:10005800F600760892073A287A0A031D37287B0AA1
:10006800031D372838283A280130920220009A01C7
:100078001C15210091142000111F43284428D6285C
:10008800210011132000111321001D0C890C1F39A8
:10009800003A031D502851289D28F001F1017108EC
:1000A800803AF60080307602031D5C2850307002DA
:1000B800031C5F2860286128D4287108850070080F
:1000C80084008435850DB43084070130053D8038BF
:1000D8008500003FF600013FF700F801F9017908B3
:1000E80020004202031D822878084102031D82284D
:1000F80077084002031D822876083F02031C8528E2
:1001080086288B287108F3007008F200D428013083
:10011800F0070030F13D7108803AF6008030760231
:10012800031D982850307002031C9B289C286128C6
:10013800D4281D0C890C1F39033A031DA428A528AF
:10014800D4287408FE3EF600FF30753DF7007708A6
:10015800803AF8007308803A7802031DB5287208BF
:100168007602031CB828B928C22820008C14210064
:10017800911020001B082C009200D4287508803AA2
:10018800F6007308803A7602031DCC2872087402C0
:100198000318CF28D028D42820008C1021009114CF
:1001A800210011177E100900D928F001F101F20190
:1001B800F301F401F5013F308400003085000E3072
:1001C8008331D02380317E102000EA282000BE0130
:1001D8008331BC2380318331A02380311530200046
:1001E800BB004B30BA00BE30890BF828BA0BF82890
:1001F800BB0BF8280000033020003E06031D05292C
:1002080006299629003083313123803120002008C7
:10021800C3002108C400C501C6010030BA0004307B
:10022800BB000030BC000030BD004308BA024408DF
:10023800BB3B4508BC3B4608BD3B3D08C6003C08E7
:10024800C5003B08C4003A08C3004608A300450897
:10025800A2004408A1004308A0000030A700003015
:10026800A6000130A500F430A40083316C2380314E
:1002780020002008BA002108BB002208BC0023087F
:10028800BD000A30BD36BC0CBB0CBA0C890B462924
:100298003D08CC003C08CB003B08CA003A08C9001E
:1002A8004C08AF004B08AE004A08AD004908AC0046
:1002B800F430BA000130BB000030BC000030BD0093
:1002C8004908BA024A08BB3B4B08BC3B4C08BD3B3B
:1002D8003D08A3003C08A2003B08A1003A08A00082
:1002E8000030A7000030A6000330A500E830A400C5
:1002F80083316C23803120002308B3002208B20028
:100308002108B1002008B000823154228031200039
:100318002F08C2002E08C1002D08C0002C08BF00FD
:10032800BE01FF288231AF22803120002B08C8008F
:100338002A08C7000C30A0000030A1004808A3001C
:100348004708A2008231F422803120002108F500FC
:100358002008F4000130BA003A08BE07FF28D82860
:10036800F0342534CE342334CE342134EC341F34E5
:100378002A341E3482341C34F4341A347E3419344A
:10038800203418349E3415347A34143466341334D3
:1003980064341234703411348A341034B0340F3465
:1003A800E4340E3424340E346E340D34C2340C3438
:1003B80020340C3486340B34F6340A346C340A3462
:1003C800EC34093472340934FE3408349034083477
:1003D80028340834C63407346934073411340734F0
:1003E800BE3406346E34063423340634DC34053423
:1003F80098340534583405341B340534E134043456
:10040800AA340434763404344434043415340434BB
:10041800E8340334BD340334943403346D34033482
:10042800483403342534033404340334E4340234C4
:10043800C5340234A83402348D34023472340234A0
:1004480059340234413402342A3402341434023424
:10045800FF340134EB340134D8340134C634013468
:10046800B4340134A4340134943401348434013470
:1004780076340134683401345A3401344E3401344A
:1004880041340134353401342A3401341F34013401
:10049800153401340B34013402340134F834003497
:1004A80000302000B8000030B7000030B60000303F
:1004B800B5002F082E042D042C040319642A652A7C
:1004C800A62AB901B90A732A0130AC35AD0DAE0DB3
:1004D800AF0D890B692A0130B4003408B907AF1F82
:1004E800762A772A682A0130B535B60DB70DB80DCA
:1004F800890B782A2F083302031D8C2A2E08320212
:10050800031D8C2A2D083102031D8C2A2C08300269
:10051800031C8F2A902A992A2C08B0022D08B13B77
:100528002E08B23B2F08B33B35140130AF36AE0C62
:10053800AD0CAC0C890B9A2A0130B902031DA52A0F
:10054800A62A772A3808AF003708AE003608AD006B
:100558003508AC0008000330833131238231200094
:100568002108AF002008AE000330890BB92A00002B
:10057800033083313123823120002108B100200863
:10058800B0000330890BC62A0000033083313123C1
:10059800823120002108B3002008B2000330890B03
:1005A800D32A000003302000A0000030A10030084A
:1005B8002E07AC0031082F3DAD0032082C07A200F1
:1005C80033082D3DA3008231F42282312000210816
:1005D800B5002008B4003508AB003408AA000800AC
:1005E8002000A601A701200821040319FC2AFD2ADE
:1005F8002C2BA501A50A092B0130A035A10D890BCB
:10060800012B0130A4002408A507A11F0C2B0D2BDA
:10061800002B0130A635A70D890B0E2B21082302CC
:10062800031D182B20082202031C1B2B1C2B212B1B
:100638002008A2022108A33B26140130A136A00CF1
:10064800890B222B0130A502031D2B2B2C2B0D2BE4
:100658002708A1002608A00008002000A9002908F2
:10066800A200A20DA20D21001D0820002206833938
:10067800220621009D000D302000A200FB30890BCE
:10068800432BA20B432B003221009D149D184D2BA8
:100698004E2B4A2B1B082000A2000630A236890BDD
:1006A800522B2208A300A40121001C082000A50049
:1006B800A601A535A60DA535A60D23082504A70076
:1006C80024082604A8002708A0002808A10008007C
:1006D80000302000AB000030AA000030A900003034
:1006E800A800201C782B792B812B2408A807250823
:1006F800A93D2608AA3D2708AB3D0130A435A50D24
:10070800A60DA70D890B822B0130A336A20CA10CD4
:10071800A00C890B892B2308220421042004031D23
:10072800962B972B752B2B08A3002A08A2002908C3
:10073800A1002808A000080021000C152C00930136
:100748001312C83020009B002C00920191018B17D6
:100758000B17210091142000911003309C042C00E9
:10076800931721000C112C00131720001C150800EA
:1007780070302100990020008C1021008C1023007B
:100788000C140C16503021009E0011172000111374
:1007980021009D101D140800640080010131890B9F
:0407A800D12B00341D
:020000040001F9
:04000E00E439FF1DB5
:00000001FF
