:040000000128FB2BAD
:10064A00F401F501701C2A2B2B2B2F2B7208F407AF
:10065A007308F53D0130F235F30D890B302B01306B
:10066A00F136F00C890B352B70087104031D3E2BF3
:10067A003F2B272B7508F1007408F00008002000B2
:10068A000C1021000C1020008C1021008C1020006E
:10069A000C1121000C1120000C1221000C127230D6
:1006AA0099000C100C1223000C140C165030210067
:1006BA009E009D101D14833021009D059D149D18D8
:1006CA00672B682B602BFB01FC016430F6000030BD
:1006DA00F7001B082000A4000630A436890B722BF1
:1006EA002408A500A60121001C082000A700A801D3
:1006FA00A735A80DA735A80D25082704F000260858
:10070A002804F1004E30F2000030F3008331252333
:10071A0083317108F9007008F80083319B23833113
:10072A007708FC007608FB00602B01282000A10155
:10073A00F71FA02BA12BA82BF609F709F60A031914
:10074A00F70AA101A10AF91FAB2BAC2BB52BF809AB
:10075A00F909F80A0319F90A0130FA007A08A10618
:10076A00A201A301760877040319BC2BBD2BEC2B3D
:10077A00A001A00AC92B0130F635F70D890BC12B50
:10078A000130FA007A08A007F71FCC2BCD2BC02B1B
:10079A000130A235A30D890BCE2B77087902031DF0
:1007AA00D82B76087802031CDB2BDC2BE12B76088E
:1007BA00F8027708F93B22140130F736F60C890B58
:1007CA00E22B0130A002031DEB2BEC2BCD2B2108D1
:1007DA000319F02BF12BF62BA209A309A20A03197C
:1007EA00A30A2308F7002208F6000800FB01FC010F
:0607FA00FD012000442B6C
:020000040001F9
:04000E00E439FF1FB3
:00000001FF
