:040000000128FB2BAD
:10068000F401F501701C482B7208F4077308F53D5E
:100690000130F235F30D890B492B0130F136F00CA6
:1006A000890B4E2B70087104031D422B7508F10055
:1006B0007408F00008000C1021000C1020008C10B1
:1006C00021008C1020000C1121000C1120000C12B4
:1006D00021000C12723099000C100C1223000C1423
:1006E0000C16503021009E009D101D1483302100F7
:1006F0009D059D149D18762BFB01FC016430F600CE
:100700000030F7001B082000A4000630A436890B37
:10071000862B2408A500A60121001C082000A700A4
:10072000A801A735A80DA735A80D25082704F000B6
:1007300026082804F1004E30F2000030F300402378
:100740007108F9007008F800AA237708FC00760801
:10075000FB00762BA101F71FB42BF609F709F60A67
:100760000319F70AA101A10AF91FBF2BF809F9091A
:10077000F80A0319F90A0130FA007A08A106A20161
:10078000A301760877040319EE2BA001A00AF71B3A
:10079000D32B0130F635F70D890BCA2B0130FA0047
:1007A0007A08A007C72B0130A235A30D890BD42BE3
:1007B00077087902031DDE2B76087802031CE52BEF
:1007C0007608F8027708F93B22140130F736F60C68
:1007D000890BE62B0130A002031DD32B210803193E
:1007E000F62BA209A309A20A0319A30A2308F700FA
:1007F0002208F6000800FB01FC01FD0120005B2B34
:020000040001F9
:04000E00E439FF1FB3
:00000001FF
